{
  "contractName": "HealthRecord",
  "abi": [
    {
      "anonymous": false,
      "inputs": [
        {
          "indexed": true,
          "internalType": "string",
          "name": "patientId",
          "type": "string"
        },
        {
          "indexed": true,
          "internalType": "string",
          "name": "doctorId",
          "type": "string"
        },
        {
          "indexed": false,
          "internalType": "string",
          "name": "data",
          "type": "string"
        },
        {
          "indexed": false,
          "internalType": "uint256",
          "name": "timestamp",
          "type": "uint256"
        }
      ],
      "name": "RecordCreated",
      "type": "event"
    },
    {
      "inputs": [
        {
          "internalType": "uint256",
          "name": "",
          "type": "uint256"
        }
      ],
      "name": "records",
      "outputs": [
        {
          "internalType": "string",
          "name": "patientId",
          "type": "string"
        },
        {
          "internalType": "string",
          "name": "doctorId",
          "type": "string"
        },
        {
          "internalType": "string",
          "name": "data",
          "type": "string"
        },
        {
          "internalType": "uint256",
          "name": "timestamp",
          "type": "uint256"
        }
      ],
      "stateMutability": "view",
      "type": "function",
      "constant": true
    },
    {
      "inputs": [
        {
          "internalType": "string",
          "name": "_patientId",
          "type": "string"
        },
        {
          "internalType": "string",
          "name": "_doctorId",
          "type": "string"
        },
        {
          "internalType": "string",
          "name": "_data",
          "type": "string"
        }
      ],
      "name": "addRecord",
      "outputs": [],
      "stateMutability": "nonpayable",
      "type": "function"
    },
    {
      "inputs": [
        {
          "internalType": "string",
          "name": "_patientId",
          "type": "string"
        }
      ],
      "name": "getRecordsByPatient",
      "outputs": [
        {
          "components": [
            {
              "internalType": "string",
              "name": "patientId",
              "type": "string"
            },
            {
              "internalType": "string",
              "name": "doctorId",
              "type": "string"
            },
            {
              "internalType": "string",
              "name": "data",
              "type": "string"
            },
            {
              "internalType": "uint256",
              "name": "timestamp",
              "type": "uint256"
            }
          ],
          "internalType": "struct HealthRecord.Record[]",
          "name": "",
          "type": "tuple[]"
        }
      ],
      "stateMutability": "view",
      "type": "function",
      "constant": true
    }
  ],
  "bytecode": "0x608060405234801561001057600080fd5b50611061806100206000396000f3fe608060405234801561001057600080fd5b50600436106100415760003560e01c806334461067146100465780633f723c6214610079578063789b7b4614610095575b600080fd5b610060600480360381019061005b9190610a80565b6100c5565b6040516100709493929190610d33565b60405180910390f35b610093600480360381019061008e91906109e9565b61029d565b005b6100af60048036038101906100aa91906109a8565b6103b6565b6040516100bc9190610d11565b60405180910390f35b600081815481106100d557600080fd5b90600052602060002090600402016000915090508060000180546100f890610efb565b80601f016020809104026020016040519081016040528092919081815260200182805461012490610efb565b80156101715780601f1061014657610100808354040283529160200191610171565b820191906000526020600020905b81548152906001019060200180831161015457829003601f168201915b50505050509080600101805461018690610efb565b80601f01602080910402602001604051908101604052809291908181526020018280546101b290610efb565b80156101ff5780601f106101d4576101008083540402835291602001916101ff565b820191906000526020600020905b8154815290600101906020018083116101e257829003601f168201915b50505050509080600201805461021490610efb565b80601f016020809104026020016040519081016040528092919081815260200182805461024090610efb565b801561028d5780601f106102625761010080835404028352916020019161028d565b820191906000526020600020905b81548152906001019060200180831161027057829003601f168201915b5050505050908060030154905084565b600060405180608001604052808581526020018481526020018381526020014281525090806001815401808255809150506001900390600052602060002090600402016000909190919091506000820151816000019080519060200190610305929190610860565b506020820151816001019080519060200190610322929190610860565b50604082015181600201908051906020019061033f929190610860565b506060820151816003015550508160405161035a9190610cfa565b6040518091039020836040516103709190610cfa565b60405180910390207fefbadf74ebc0b60c1831e64f2b58c9965c9bde0a4f103d4e6042848cfec8651583426040516103a9929190610d8d565b60405180910390a3505050565b60606000808054905067ffffffffffffffff8111156103fe577f4e487b7100000000000000000000000000000000000000000000000000000000600052604160045260246000fd5b60405190808252806020026020018201604052801561043757816020015b6104246108e6565b81526020019060019003908161041c5790505b5090506000805b6000805490508110156107325784805190602001206000828154811061048d577f4e487b7100000000000000000000000000000000000000000000000000000000600052603260045260246000fd5b90600052602060002090600402016000016040516104ab9190610ce3565b6040518091039020141561071f57600081815481106104f3577f4e487b7100000000000000000000000000000000000000000000000000000000600052603260045260246000fd5b906000526020600020906004020160405180608001604052908160008201805461051c90610efb565b80601f016020809104026020016040519081016040528092919081815260200182805461054890610efb565b80156105955780601f1061056a57610100808354040283529160200191610595565b820191906000526020600020905b81548152906001019060200180831161057857829003601f168201915b505050505081526020016001820180546105ae90610efb565b80601f01602080910402602001604051908101604052809291908181526020018280546105da90610efb565b80156106275780601f106105fc57610100808354040283529160200191610627565b820191906000526020600020905b81548152906001019060200180831161060a57829003601f168201915b5050505050815260200160028201805461064090610efb565b80601f016020809104026020016040519081016040528092919081815260200182805461066c90610efb565b80156106b95780601f1061068e576101008083540402835291602001916106b9565b820191906000526020600020905b81548152906001019060200180831161069c57829003601f168201915b50505050508152602001600382015481525050838381518110610705577f4e487b7100000000000000000000000000000000000000000000000000000000600052603260045260246000fd5b6020026020010181905250818061071b90610f2d565b9250505b808061072a90610f2d565b91505061043e565b5060008167ffffffffffffffff811115610775577f4e487b7100000000000000000000000000000000000000000000000000000000600052604160045260246000fd5b6040519080825280602002602001820160405280156107ae57816020015b61079b6108e6565b8152602001906001900390816107935790505b50905060005b82811015610854578381815181106107f5577f4e487b7100000000000000000000000000000000000000000000000000000000600052603260045260246000fd5b6020026020010151828281518110610836577f4e487b7100000000000000000000000000000000000000000000000000000000600052603260045260246000fd5b6020026020010181905250808061084c90610f2d565b9150506107b4565b50809350505050919050565b82805461086c90610efb565b90600052602060002090601f01602090048101928261088e57600085556108d5565b82601f106108a757805160ff19168380011785556108d5565b828001600101855582156108d5579182015b828111156108d45782518255916020019190600101906108b9565b5b5090506108e2919061090e565b5090565b6040518060800160405280606081526020016060815260200160608152602001600081525090565b5b8082111561092757600081600090555060010161090f565b5090565b600061093e61093984610dee565b610dbd565b90508281526020810184848401111561095657600080fd5b610961848285610eb9565b509392505050565b600082601f83011261097a57600080fd5b813561098a84826020860161092b565b91505092915050565b6000813590506109a281611014565b92915050565b6000602082840312156109ba57600080fd5b600082013567ffffffffffffffff8111156109d457600080fd5b6109e084828501610969565b91505092915050565b6000806000606084860312156109fe57600080fd5b600084013567ffffffffffffffff811115610a1857600080fd5b610a2486828701610969565b935050602084013567ffffffffffffffff811115610a4157600080fd5b610a4d86828701610969565b925050604084013567ffffffffffffffff811115610a6a57600080fd5b610a7686828701610969565b9150509250925092565b600060208284031215610a9257600080fd5b6000610aa084828501610993565b91505092915050565b6000610ab58383610c54565b905092915050565b6000610ac882610e43565b610ad28185610e66565b935083602082028501610ae485610e1e565b8060005b85811015610b205784840389528151610b018582610aa9565b9450610b0c83610e59565b925060208a01995050600181019050610ae8565b50829750879550505050505092915050565b60008154610b3f81610efb565b610b498186610e77565b94506001821660008114610b645760018114610b7557610ba8565b60ff19831686528186019350610ba8565b610b7e85610e2e565b60005b83811015610ba057815481890152600182019150602081019050610b81565b838801955050505b50505092915050565b6000610bbc82610e4e565b610bc68185610e82565b9350610bd6818560208601610ec8565b610bdf81611003565b840191505092915050565b6000610bf582610e4e565b610bff8185610e93565b9350610c0f818560208601610ec8565b610c1881611003565b840191505092915050565b6000610c2e82610e4e565b610c388185610ea4565b9350610c48818560208601610ec8565b80840191505092915050565b60006080830160008301518482036000860152610c718282610bb1565b91505060208301518482036020860152610c8b8282610bb1565b91505060408301518482036040860152610ca58282610bb1565b9150506060830151610cba6060860182610cc5565b508091505092915050565b610cce81610eaf565b82525050565b610cdd81610eaf565b82525050565b6000610cef8284610b32565b915081905092915050565b6000610d068284610c23565b915081905092915050565b60006020820190508181036000830152610d2b8184610abd565b905092915050565b60006080820190508181036000830152610d4d8187610bea565b90508181036020830152610d618186610bea565b90508181036040830152610d758185610bea565b9050610d846060830184610cd4565b95945050505050565b60006040820190508181036000830152610da78185610bea565b9050610db66020830184610cd4565b9392505050565b6000604051905081810181811067ffffffffffffffff82111715610de457610de3610fd4565b5b8060405250919050565b600067ffffffffffffffff821115610e0957610e08610fd4565b5b601f19601f8301169050602081019050919050565b6000819050602082019050919050565b60008190508160005260206000209050919050565b600081519050919050565b600081519050919050565b6000602082019050919050565b600082825260208201905092915050565b600081905092915050565b600082825260208201905092915050565b600082825260208201905092915050565b600081905092915050565b6000819050919050565b82818337600083830152505050565b60005b83811015610ee6578082015181840152602081019050610ecb565b83811115610ef5576000848401525b50505050565b60006002820490506001821680610f1357607f821691505b60208210811415610f2757610f26610fa5565b5b50919050565b6000610f3882610eaf565b91507fffffffffffffffffffffffffffffffffffffffffffffffffffffffffffffffff821415610f6b57610f6a610f76565b5b600182019050919050565b7f4e487b7100000000000000000000000000000000000000000000000000000000600052601160045260246000fd5b7f4e487b7100000000000000000000000000000000000000000000000000000000600052602260045260246000fd5b7f4e487b7100000000000000000000000000000000000000000000000000000000600052604160045260246000fd5b6000601f19601f8301169050919050565b61101d81610eaf565b811461102857600080fd5b5056fea2646970667358221220d15a4de449b9ae815fcbec9b30f0af6c6357466e3c368e4ce5e70b13b4a290c664736f6c63430008000033",
  "immutableReferences": {},
  "source": "// contracts/HealthRecord.sol\r\n// SPDX-License-Identifier: UNLICENSED\r\npragma solidity ^0.8.0;\r\n\r\ncontract HealthRecord {\r\n    struct Record {\r\n        string patientId;\r\n        string doctorId;\r\n        string data;\r\n        uint256 timestamp;\r\n    }\r\n\r\n    Record[] public records;\r\n\r\n    event RecordCreated(string indexed patientId, string indexed doctorId, string data, uint256 timestamp);\r\n\r\n    function addRecord(string memory _patientId, string memory _doctorId, string memory _data) public {\r\n        records.push(Record({\r\n            patientId: _patientId,\r\n            doctorId: _doctorId,\r\n            data: _data,\r\n            timestamp: block.timestamp\r\n        }));\r\n\r\n        emit RecordCreated(_patientId, _doctorId, _data, block.timestamp);\r\n    }\r\n\r\n    function getRecordsByPatient(string memory _patientId) public view returns (Record[] memory) {\r\n        Record[] memory patientRecords = new Record[](records.length);\r\n        uint256 count = 0;\r\n\r\n        for (uint256 i = 0; i < records.length; i++) {\r\n            if (keccak256(bytes(records[i].patientId)) == keccak256(bytes(_patientId))) {\r\n                patientRecords[count] = records[i];\r\n                count++;\r\n            }\r\n        }\r\n\r\n        Record[] memory result = new Record[](count);\r\n        for (uint256 i = 0; i < count; i++) {\r\n            result[i] = patientRecords[i];\r\n        }\r\n\r\n        return result;\r\n    }\r\n}",
  "sourcePath": "C:\\Users\\shant\\OneDrive\\Desktop\\hms-app\\blockchain\\contracts\\HealthRecord.sol",
  "compiler": {
    "name": "solc",
    "version": "0.8.0+commit.c7dfd78e.Emscripten.clang"
  },
  "schemaVersion": "3.4.16",
  "updatedAt": "2025-02-11T20:12:54.446Z",
  "networkType": "ethereum",
  "devdoc": {
    "kind": "dev",
    "methods": {},
    "version": 1
  },
  "userdoc": {
    "kind": "user",
    "methods": {},
    "version": 1
  }
}